{
  "contractName": "Netflix",
  "abi": [
    {
      "inputs": [
        {
          "internalType": "address",
          "name": "_netflixAccount",
          "type": "address"
        },
        {
          "internalType": "uint256",
          "name": "_subscriptionFee",
          "type": "uint256"
        }
      ],
      "stateMutability": "nonpayable",
      "type": "constructor"
    },
    {
      "anonymous": false,
      "inputs": [
        {
          "indexed": true,
          "internalType": "address",
          "name": "subscriber",
          "type": "address"
        },
        {
          "indexed": false,
          "internalType": "uint256",
          "name": "amount",
          "type": "uint256"
        }
      ],
      "name": "Subscription",
      "type": "event"
    },
    {
      "inputs": [],
      "name": "netflixAccount",
      "outputs": [
        {
          "internalType": "address",
          "name": "",
          "type": "address"
        }
      ],
      "stateMutability": "view",
      "type": "function",
      "constant": true
    },
    {
      "inputs": [],
      "name": "owner",
      "outputs": [
        {
          "internalType": "address",
          "name": "",
          "type": "address"
        }
      ],
      "stateMutability": "view",
      "type": "function",
      "constant": true
    },
    {
      "inputs": [],
      "name": "subscriptionFee",
      "outputs": [
        {
          "internalType": "uint256",
          "name": "",
          "type": "uint256"
        }
      ],
      "stateMutability": "view",
      "type": "function",
      "constant": true
    },
    {
      "stateMutability": "payable",
      "type": "receive",
      "payable": true
    },
    {
      "inputs": [
        {
          "internalType": "uint256",
          "name": "_newFee",
          "type": "uint256"
        }
      ],
      "name": "setSubscriptionFee",
      "outputs": [],
      "stateMutability": "nonpayable",
      "type": "function"
    },
    {
      "inputs": [],
      "name": "subscribe",
      "outputs": [],
      "stateMutability": "payable",
      "type": "function",
      "payable": true
    },
    {
      "inputs": [
        {
          "internalType": "uint256",
          "name": "_amount",
          "type": "uint256"
        }
      ],
      "name": "withdrawFees",
      "outputs": [],
      "stateMutability": "nonpayable",
      "type": "function"
    }
  ],
  "bytecode": "0x608060405234801561001057600080fd5b50604051610ae1380380610ae18339818101604052810190610032919061015a565b336000806101000a81548173ffffffffffffffffffffffffffffffffffffffff021916908373ffffffffffffffffffffffffffffffffffffffff16021790555081600160006101000a81548173ffffffffffffffffffffffffffffffffffffffff021916908373ffffffffffffffffffffffffffffffffffffffff16021790555080600281905550505061019a565b600080fd5b600073ffffffffffffffffffffffffffffffffffffffff82169050919050565b60006100f1826100c6565b9050919050565b610101816100e6565b811461010c57600080fd5b50565b60008151905061011e816100f8565b92915050565b6000819050919050565b61013781610124565b811461014257600080fd5b50565b6000815190506101548161012e565b92915050565b60008060408385031215610171576101706100c1565b5b600061017f8582860161010f565b925050602061019085828601610145565b9150509250929050565b610938806101a96000396000f3fe6080604052600436106100595760003560e01c80630aa0a175146100655780635e318e07146100905780636ac84956146100b95780637c601c86146100e25780638da5cb5b1461010d5780638f449a051461013857610060565b3661006057005b600080fd5b34801561007157600080fd5b5061007a610142565b6040516100879190610548565b60405180910390f35b34801561009c57600080fd5b506100b760048036038101906100b29190610594565b610148565b005b3480156100c557600080fd5b506100e060048036038101906100db9190610594565b6102ea565b005b3480156100ee57600080fd5b506100f7610382565b6040516101049190610602565b60405180910390f35b34801561011957600080fd5b506101226103a8565b60405161012f9190610602565b60405180910390f35b6101406103cc565b005b60025481565b60008054906101000a900473ffffffffffffffffffffffffffffffffffffffff1673ffffffffffffffffffffffffffffffffffffffff163373ffffffffffffffffffffffffffffffffffffffff16146101d6576040517f08c379a00000000000000000000000000000000000000000000000000000000081526004016101cd906106a0565b60405180910390fd5b47811115610219576040517f08c379a00000000000000000000000000000000000000000000000000000000081526004016102109061070c565b60405180910390fd5b60008060009054906101000a900473ffffffffffffffffffffffffffffffffffffffff1673ffffffffffffffffffffffffffffffffffffffff16826040516102609061075d565b60006040518083038185875af1925050503d806000811461029d576040519150601f19603f3d011682016040523d82523d6000602084013e6102a2565b606091505b50509050806102e6576040517f08c379a00000000000000000000000000000000000000000000000000000000081526004016102dd906107be565b60405180910390fd5b5050565b60008054906101000a900473ffffffffffffffffffffffffffffffffffffffff1673ffffffffffffffffffffffffffffffffffffffff163373ffffffffffffffffffffffffffffffffffffffff1614610378576040517f08c379a000000000000000000000000000000000000000000000000000000000815260040161036f906106a0565b60405180910390fd5b8060028190555050565b600160009054906101000a900473ffffffffffffffffffffffffffffffffffffffff1681565b60008054906101000a900473ffffffffffffffffffffffffffffffffffffffff1681565b6002543414610410576040517f08c379a000000000000000000000000000000000000000000000000000000000815260040161040790610850565b60405180910390fd5b6000600160009054906101000a900473ffffffffffffffffffffffffffffffffffffffff1673ffffffffffffffffffffffffffffffffffffffff16346040516104589061075d565b60006040518083038185875af1925050503d8060008114610495576040519150601f19603f3d011682016040523d82523d6000602084013e61049a565b606091505b50509050806104de576040517f08c379a00000000000000000000000000000000000000000000000000000000081526004016104d5906108e2565b60405180910390fd5b3373ffffffffffffffffffffffffffffffffffffffff167f1aff03dc3f62d2c984469e42def4321d24a08ae66db4c0d2623666b90d7742c6346040516105249190610548565b60405180910390a250565b6000819050919050565b6105428161052f565b82525050565b600060208201905061055d6000830184610539565b92915050565b600080fd5b6105718161052f565b811461057c57600080fd5b50565b60008135905061058e81610568565b92915050565b6000602082840312156105aa576105a9610563565b5b60006105b88482850161057f565b91505092915050565b600073ffffffffffffffffffffffffffffffffffffffff82169050919050565b60006105ec826105c1565b9050919050565b6105fc816105e1565b82525050565b600060208201905061061760008301846105f3565b92915050565b600082825260208201905092915050565b7f4f6e6c7920636f6e7472616374206f776e65722063616e2063616c6c2074686960008201527f732066756e6374696f6e00000000000000000000000000000000000000000000602082015250565b600061068a602a8361061d565b91506106958261062e565b604082019050919050565b600060208201905081810360008301526106b98161067d565b9050919050565b7f496e73756666696369656e7420636f6e74726163742062616c616e6365000000600082015250565b60006106f6601d8361061d565b9150610701826106c0565b602082019050919050565b60006020820190508181036000830152610725816106e9565b9050919050565b600081905092915050565b50565b600061074760008361072c565b915061075282610737565b600082019050919050565b60006107688261073a565b9150819050919050565b7f4661696c656420746f2077697468647261772066656573000000000000000000600082015250565b60006107a860178361061d565b91506107b382610772565b602082019050919050565b600060208201905081810360008301526107d78161079b565b9050919050565b7f496e636f727265637420737562736372697074696f6e206665652070726f766960008201527f6465640000000000000000000000000000000000000000000000000000000000602082015250565b600061083a60238361061d565b9150610845826107de565b604082019050919050565b600060208201905081810360008301526108698161082d565b9050919050565b7f4661696c656420746f207472616e7366657220737562736372697074696f6e2060008201527f66656520746f204e6574666c6978206163636f756e7400000000000000000000602082015250565b60006108cc60368361061d565b91506108d782610870565b604082019050919050565b600060208201905081810360008301526108fb816108bf565b905091905056fea2646970667358221220830acb6736eb34e4e20c22a89f7e217a7eaea2653d40d46dfef924a4e4999cb364736f6c634300080d0033",
  "immutableReferences": {},
  "source": "// SPDX-License-Identifier: MIT\r\npragma solidity >=0.4.22 <0.9.0;\r\n\r\ncontract Netflix {\r\n    address public owner;\r\n    address public netflixAccount;\r\n    uint256 public subscriptionFee;\r\n\r\n    event Subscription(address indexed subscriber, uint256 amount);\r\n\r\n    constructor(address _netflixAccount, uint256 _subscriptionFee) {\r\n        owner = msg.sender;\r\n        netflixAccount = _netflixAccount;\r\n        subscriptionFee = _subscriptionFee;\r\n    }\r\n\r\n    modifier onlyOwner() {\r\n        require(msg.sender == owner, \"Only contract owner can call this function\");\r\n        _;\r\n    }\r\n\r\n    function setSubscriptionFee(uint256 _newFee) public onlyOwner {\r\n        subscriptionFee = _newFee;\r\n    }\r\n\r\n    function subscribe() external payable {\r\n        require(msg.value == subscriptionFee, \"Incorrect subscription fee provided\");\r\n        (bool success, ) = netflixAccount.call{value: msg.value}(\"\");\r\n        require(success, \"Failed to transfer subscription fee to Netflix account\");\r\n        emit Subscription(msg.sender, msg.value);\r\n    }\r\n\r\n    function withdrawFees(uint256 _amount) external onlyOwner {\r\n        require(_amount <= address(this).balance, \"Insufficient contract balance\");\r\n        (bool success, ) = owner.call{value: _amount}(\"\");\r\n        require(success, \"Failed to withdraw fees\");\r\n    }\r\n\r\n    receive() external payable {\r\n        // Fallback function to receive ether\r\n    }\r\n}\r\n",
  "sourcePath": "D:\\Github\\smartcontract\\contracts\\Netflix.sol",
  "compiler": {
    "name": "solc",
    "version": "0.8.13+commit.abaa5c0e.Emscripten.clang"
  },
  "schemaVersion": "3.4.16",
  "updatedAt": "2024-04-30T22:02:37.471Z",
  "networkType": "ethereum",
  "devdoc": {
    "kind": "dev",
    "methods": {},
    "version": 1
  },
  "userdoc": {
    "kind": "user",
    "methods": {},
    "version": 1
  }
}